:020000040800F2
:10000000A8C9002089010008B51A00088D1300084E
:10001000C718000803030008232A00080000000096
:10002000000000000000000000000000AD1E0008FD
:100030001F03000800000000C91B00080D25000870
:10004000A3010008A3010008A3010008A301000800
:10005000A3010008A3010008A3010008A3010008F0
:10006000A3010008A3010008A3010008A3010008E0
:10007000A3010008A3010008A3010008A3010008D0
:10008000A3010008A3010008A3010008A3010008C0
:10009000A3010008A3010008A3010008A3010008B0
:1000A000A3010008A3010008A3010008A3010008A0
:1000B0000126000835260008A3010008A301000856
:1000C000A3010008A3010008A3010008A301000880
:1000D000A3010008A301000815280008A3010008D7
:1000E000A3010008A3010008A3010008000000000C
:1000F0000000000000000000000000000000000000
:100100000000000000000000A3010008A301000897
:10011000A3010008A3010008A3010008A30100082F
:10012000A3010008A3010008A3010008A30100081F
:10013000A3010008D1050008A3010008A3010008DD
:10014000A3010008A3010008A3010008A3010008FF
:10015000DFF80CD000F094F800480047C1610008B7
:10016000A8C9002070470000EFF30980704780F3B2
:1001700009887047EFF30880704780F3088870475C
:1001800040BA7047C0BA70470648804706480047E3
:10019000FEE7FEE7FEE7FEE7FEE7FEE7FEE7FEE737
:1001A000FEE7FEE7152500085101000840EA0103BB
:1001B0009B070AD102E008C9121F08C0042AFAD21C
:1001C00003E011F8013B00F8013B521EF9D27047E1
:1001D000D2B201E000F8012B491EFBD27047002289
:1001E000F6E710B504460846114602462046FFF7DA
:1001F000EFFF204610BD0146002000E0401C0A5CD5
:10020000002AFBD17047C9B203E003788B4203D0C8
:10021000401C521EF9D20020704730B50446002021
:10022000034600E05B1C934203D2E05CCD5C401BC4
:10023000F8D030BD30B500252B4600E05B1C934262
:1002400005D2C45CCD5C651B01D1002CF6D12846DB
:1002500030BD30B50B46014600202022012409E0C4
:1002600021FA02F59D4205D303FA02F5491B04FA6F
:1002700002F52844151EA2F10102F1DC30BD000098
:10028000064C074D06E0E06840F0010394E80700E3
:1002900098471034AC42F6D3FFF75EFF88C00008E1
:1002A000A8C0000870B501EB020410F8015B15F05E
:1002B000070301D110F8013B2A1106D110F8012BD8
:1002C00003E010F8016B01F8016B5B1EF9D12B07FD
:1002D00006D4002301E001F8013B521EFBD50CE0DF
:1002E00010F8013B02F10202A1EB030303E013F853
:1002F000015B01F8015B521EF9D5A142D5D3002064
:1003000070BD00BFFEE710B50021084607F014F8E5
:100310000446082C01D0002010BD0120FCE77047E6
:100320004FF0E021096921F004014FF0E022116152
:100330000146C21700EB5272D210054B1A701946D3
:1003400009784FF47A7251439A1C1180704700006B
:100350009C0000200B49097841434FF0E022516195
:100360001146096941F00101116100BF4FF0E02120
:10037000096911F4803FF9D000214FF0E0221161AA
:10038000916170479C00002010B504462046FFF79D
:10039000E1FF10BD10B51648046800BF0068A04218
:1003A00005D113480068C0681149086018E010487A
:1003B0000068104908600EE00E480068C068A0425E
:1003C00004D10C49E0680968C86008E00948006881
:1003D000C06808490860074800680028ECD100BFE1
:1003E0000020E06000BF204607F050F810BD00007C
:1003F00020010020300100200149486170470000C1
:100400000090024029B1064AD2690243044BDA61E6
:1004100004E0034AD2698243014BDA61704700006D
:100420000090024030B10749896941F00201054A54
:10043000916105E00349896921F00201014A916156
:10044000704700000090024030B50024104D286035
:1004500000BF18E000EB04134FF000451D6044F2AC
:10046000F0555D60C4EB441505EB841501EB0515F3
:100470009D60551EA54204D900EB04151035DD60C2
:1004800000E0D860641C9442E4D3024DE86030BDC3
:10049000E40000200090024021B1426822F00042B6
:1004A000426003E0426842F0004242607047000050
:1004B00030B10749896941F40051054A916105E06D
:1004C0000349896921F40051014A91617047000094
:1004D0000090024030B500240F4D286000BF15E0A9
:1004E00000EB04134FF480151D60C4EB441505EBBD
:1004F000841501EB05159D60551EA54204D900EB3E
:1005000004151035DD6000E0D860641C9442E7D328
:10051000024D286130BD0000E00000200090024044
:1005200010B50121880301F061FB00214FF48040E8
:1005300001F05CFB10BD0021014600E0491E0029CE
:10054000FCD170470348806940F4801001498861FC
:1005500070470000009002400148006880687047C2
:10056000E000002001460868C0F30D40704700001D
:1005700000B500220F480068006810F0004F16D147
:100580000C480068006810F4004F10D1094800685A
:10059000006810F4807F0AD006480068006810F4F4
:1005A000007F04D003480068FFF7DCFF02461046D6
:1005B00000BD0000E400002000200449096811F09B
:1005C000010F01D0012000E00020704700900240A0
:1005D00010B54020FFF710FF4FF48030FFF70CFFFD
:1005E00010BD00002DE9F04786B004460D460026F8
:1005F0000027B046DFF82092B2468848076927F006
:100600001C0701A801F022FBDDF808908448814511
:1006100005D38448814502D247F0080709E08148A4
:10062000814505D37C48814502D247F00C0700E0A4
:1006300000BF7A4807614FF400420021284600F0CD
:1006400097FA18B9002006B0BDE8F0877648FFF7A2
:1006500072FF2068002848D000BF0AF1010A01217A
:10066000284600F029F910F0040F02D16F488245A6
:10067000F3D36E48824501D10020E4E74FF0000A31
:100680004FF480520021284600F072FA08B9002089
:10069000D9E700BF0AF1010A0121284600F00CF950
:1006A00010F0200F02D161488245F3D35F488245A4
:1006B00001D10020C7E74FF0000A1021284600F0C2
:1006C000FBF8064616F0040F03D04FF400602062DA
:1006D00001E00020206216F0020F02D000206061CD
:1006E00016E04FF48040606112E0206AC0F3CF0052
:1006F0006169C1F34F0140EA01020021284600F080
:1007000037FA08B900209EE76FF07F40FFF713FF2C
:100710004248076846480740D4E901010843E168B8
:1007200008432169084361690843A1690843E169F5
:100730000843216A0843616A0843A16A0843E16AE1
:100740000843216B0843616B084307433348076044
:10075000D4E90E010843216C0843616C0843A16C85
:100760000843E16C0843216D0843616D08432B4940
:100770004860A06D8860E06DC860084687694FF6E4
:1007800041700740D4E9181040EA0140A16E0843C7
:10079000E16E0843216F0843616F084307431F4818
:1007A0008761D4E91E0108431C49C8612148876953
:1007B00021480740D4E920010843D4F888100843B1
:1007C000D4F88C100843D4F890100843D4F894104F
:1007D0000843D4F898100843D4F89C100843D4F880
:1007E000A0100843074313488761D4E9290108434F
:1007F000D4F8AC100843D4F8B0100843D4F8B410BF
:1008000040EA8100D4F8B810084340F400000949D8
:100810000860012017E70000008793030080024072
:10082000002D3101C00E1602FFFF0F00FFFF040074
:100830000F8120FF00900240233FDEF810B50B79B6
:100840004C7943EA0422094B03441A64CB781B0613
:100850008C7843EA04434C7843EA04230C7843EA57
:100860000402024B03445A6410BD000000800240A1
:1008700030B10749096841F00401054A116005E0FB
:100880000349096821F00401014A11607047000022
:100890000080024030B10749096841F00801054A6B
:1008A000116005E00349096821F00801014A11605F
:1008B000704700000080024010B50246002300246B
:1008C0001348036903F01C034FF4784000EAC22088
:1008D00003434FF4F86000EA8110034323F002035E
:1008E00043F001030A48036100BF641C0848036920
:1008F00013F0010F02D007488442F6D30548844222
:1009000001D1002010BD0248406980B2FAE7000022
:1009100000800240FFFF040010B50BE001F06EFA0A
:100920000748006830B100F0A7FF054800210A46DB
:100930000B460EC0FFF71CFE0028EFD110BD0000D3
:1009400074BC00201EB500216C460022134694465C
:1009500084E80C10214A1268126812F0004F10D07F
:10096000002200921E4A526912F0800F04D08022A9
:100970001B4B5A6100229A606A461CCA80E81C0020
:100980001EBD164A1268126812F4004F16D1134A9F
:100990001268126812F4807F10D0104A1268126830
:1009A00012F4007F0AD00D4A12681268C2F30D4299
:1009B000111F0A4A12689268019200E0002100911A
:1009C000064A12680292054A1268D268034B1A60FE
:1009D0006A461CCA80E81C00D2E70000E400002040
:1009E000009002400348006840F00100014908609F
:1009F000704700000090024000B50120FFF74AFF59
:100A0000FFF7A0FD0120FFF733FF0120FFF750FDA6
:100A10000120FFF707FD00BD0021016041608160FA
:100A2000C160016141618161C161016241628162B4
:100A3000C162016341638163C1634021016420217C
:100A4000416400218164C164016541658165C165BE
:100A500001668021416600218166C16601674167A8
:100A60008167C1674FF08061C0F880104910C0F8FD
:100A700084104910C0F88810C910C0F88C100021EB
:100A8000C0F89010C0F89410C0F89810C0F89C10EE
:100A9000C0F8A0104FF00071C0F8A4100021C0F8F9
:100AA000A8104FF40031C0F8AC104912C0F8B010D3
:100AB0000021C0F8B410C0F8B810704770B50546F2
:100AC00024480068006810F0004F1DD000F080F846
:100AD000214801F0ABFA022220492148FFF7FAFC35
:100AE000042220492048FFF7AFFC002406E01E49FD
:100AF00001EB04100121FFF7CFFC641C042CF6DB92
:100B0000FFF77AFF002070BDC5F30C00114909689A
:100B1000486010480068006840F040500D4909687E
:100B200008600C480068006840F000400949096806
:100B300008600E48406910F0040F04D004200B49EF
:100B400048610020486003480068C06801490860A7
:100B50000120D8E7E000002016000020B8AA0020FD
:100B6000D8920020F8920020989200200090024035
:100B700030B50346002400251248046904F01C0423
:100B80004FF4784000EAC32004434FF4F86000EAD1
:100B90008110044344F0020444F001040948426116
:100BA000046100BF6D1C0748046914F0010F02D0F6
:100BB00005488542F6D30448854201D1002030BD66
:100BC0000120FCE700800240FFFF040072B670477E
:100BD00000B5AFB0002000F0D5F9062001F0FCF818
:100BE000FFF79EFCFFF7FEFE00BFFFF7E5FC0128C4
:100BF000FBD06846FFF710FF01200090002007900F
:100C00004FF400700A9000200B900E9011901390FA
:100C10001490159020904FF00070219000112390B7
:100C200000202590269004202890C005299040128D
:100C30002A9080012B9040122C9040002E90012190
:100C40006846FFF7CFFC01210248FFF7DBFB2FB01E
:100C500000BD00004000010062B6704730B5044698
:100C600004254FF4302000F0F1F80546042D17D18B
:100C70000C48006940F002000A49086108464461D6
:100C8000006940F0400008614FF4302000F0DEF8C9
:100C900005460448006941F6FD71084001490861B4
:100CA000284630BD0020024004200C49C96801F0EC
:100CB0000101012901D101200EE00849C96811F0A4
:100CC000040F01D0022007E00449C96811F0100F99
:100CD00001D0032000E00420704700000020024003
:100CE00010B5002372B6002307E0064CA04203D8DB
:100CF0009C0050F824400C605B1C9342F5D362B614
:100D000010BD0000FBFF03082DE9F04104460D462D
:100D10001646002772B6002711E00A4884420BD815
:100D200055F82710204600F053F8042801D1241D5F
:100D300004E062B6BDE8F08162B6FBE77F1CB74213
:100D4000EBD3F7E7FBFF030870B5054672B62C46F8
:100D50000BE02046FFF782FF042802D104F500646F
:100D600003E062B64FF0FF3070BD03488442F0D913
:100D700062B60020F8E7000000F0030810B572B674
:100D800000F058F862B610BD2DE9F04104460D465A
:100D90001646002772B6002714E020680B498842E7
:100DA0000DD855F82710206800F012F8042803D158
:100DB0002068001D206004E062B6BDE8F08162B6E4
:100DC000FBE77F1CB742E8D362B6F6E7FBFF0308F8
:100DD000F0B504460D4604260027F00200F036F870
:100DE0000646042E22D11248006940F00100104945
:100DF00008612580F00200F029F80646042E0ED185
:100E0000A71C280C3880F00200F020F8064608489D
:100E1000006941F6FE7108400549086106E0044892
:100E2000006941F6FE710840014908613046F0BD95
:100E30000020024002480349486003484860704768
:100E40002301674500200240AB89EFCD00B5024683
:100E50000423FFF729FF034603E0FFF725FF0346BE
:100E6000521E012B01D1002AF7D102B905231846E1
:100E700000BD03467047000008B50420ADF800002F
:100E800003208DF8020018208DF8030069463948C8
:100E900000F07EF80620ADF8000003208DF8020077
:100EA00018208DF803006946334800F071F843F6C6
:100EB0002010ADF8000003208DF8020018208DF8F6
:100EC000030069462D4800F063F801214FF020101F
:100ED00000F0E6F80B20ADF8000003208DF80200CA
:100EE00004208DF803006946224800F051F84FF4C1
:100EF0008060ADF8000003208DF8020004208DF81A
:100F0000030069461D4800F043F80820ADF80000D2
:100F100003208DF8020004208DF80300694616486E
:100F200000F036F84FF4F850ADF8000003208DF8CB
:100F3000020004208DF803006946114800F028F8EB
:100F40001020ADF8000000208DF8030069460A4823
:100F500000F01EF84FF48070ADF8000003208DF80B
:100F6000020018208DF803006946024800F010F8CE
:100F700008BD00000008014000100140000C0140C5
:100F8000001401400149086070470000DC00204265
:100F90002DE9F0410022002300240025002600272F
:100FA00091F803C00CF00F0291F803C01CF0100F71
:100FB00003D091F802C04CEA0202B1F800C01CF064
:100FC000FF0F31D0066800242BE04FF0010C0CFA23
:100FD00004F5B1F800C00CEA0503AB4220D1A5002E
:100FE0004FF00F0C0CFA05F7BE4302FA05FC4CEA71
:100FF000060691F803C0BCF1280F06D14FF0010C92
:101000000CFA04FCC0F814C00AE091F803C0BCF16B
:10101000480F05D14FF0010C0CFA04FCC0F810C0C9
:10102000641C082CD1D30660B1F800C0BCF1FF0FDE
:1010300034DD466800242EE004F1080C4FF001086E
:1010400008FA0CF5B1F800C00CEA0503AB4221D157
:10105000A5004FF00F0C0CFA05F7BE4302FA05FC91
:101060004CEA060691F803C0BCF1280F05D104F143
:10107000080C08FA0CF8C0F8148091F803C0BCF111
:10108000480F07D104F1080C4FF0010808FA0CF8DA
:10109000C0F81080641C082CCED34660BDE8F081F7
:1010A000F0B5002200230024002500F00046B6F130
:1010B000004F02D11C4EF46901E01B4E7468C0F36E
:1010C000034582B200F44016B6F5401F08D124F063
:1010D0007064154E766826F07066134F7E6012E0DD
:1010E00000F48016B6F5801F06D1032606FA05F334
:1010F0009C4344F0706406E0460D360102FA06F6A1
:10110000B44344F0706421B1460D360102FA06F68C
:10111000344300F00046B6F1004F02D1024EF461B4
:1011200001E0014E7460F0BD000001400246002065
:1011300093680B4201D0012000E00020704741611C
:1011400070470161704700001FB50446FFF716FEA7
:10115000012269461E48FFF7C3FD012201A91C4870
:10116000001DFFF7BDFD012202A919480830FFF755
:10117000B7FD012203A916480C30FFF7B1FD009816
:10118000401C01D1012000E000200199491C01D13F
:10119000012100E0002108430399491C01D10121EC
:1011A00000E0002108430ED00A48009041F22F6071
:1011B0000190002003900648FFF750FD0422694685
:1011C0000348FFF7A1FD68460FC884E80F001FBD64
:1011D00000F80308E9603B7B0D4909680D4AD2F825
:1011E000EC2711440C4A126801EB02004FF0000199
:1011F0000A4A11704FF02601517090704FEA102189
:10120000D1704FEA104111714FEA1061517170476E
:10121000E8F7FF1F00F0FF1FF0F7FF1F1600002088
:101220002DE9F04100244048006805883E480068E8
:1012300046883D48006807793C49081908223CA1C6
:10124000FEF7B4FF08340D20384908550A21601C08
:101250000446364A115411460819122237A1FEF7E6
:10126000A5FF1234314908192A4639A101F024FC9E
:101270002044C4B20D202D4908550A21601CC0B27B
:1012800004462A4A115411460819122231A1FEF7C8
:101290008DFF04F11200C4B22449081932462CA172
:1012A00001F00AFC2044C4B20D20204908550A214F
:1012B000601CC0B204461D4A11541146081914227C
:1012C00029A1FEF773FF04F11400C4B2AA1B174949
:1012D00008191FA101F0F0FB2044C4B20D201349EE
:1012E00008550A21601CC0B20446104A1154114628
:1012F00008190A2222A1FEF759FF04F10A00C4B21C
:101300000A4908193A4612A101F0D6FB2044C4B29A
:101310000D20064908550A21601CC0B20446034A44
:1013200011541046BDE8F081F80000208A27002003
:10133000C4DAB4E6D0C5CFA200000000D7DCC4DA1E
:10134000B4E6CAFDA3A8D7D6BDDAA3A9A3BA000004
:1013500025640000D2D1D3C3C4DAB4E6A3A8D7D69B
:10136000BDDAA3A9A3BA0000CAA3D3E0C4DAB4E6E5
:10137000CAFDA3A8D7D6BDDAA3A9A3BA000000006E
:10138000CAB9D3C3B1EACABEA3BA000010B5FEF70A
:10139000E9FE00BFFEE7000010B5114800680068D4
:1013A00010490840B0F1005F18D14FF0AA300E4943
:1013B000886003210C4801F069FB09480068406817
:1013C0000A49086008460068094908600449096834
:1013D0000868FEF7D2FE06480068804710BD00008E
:1013E000180200200000FE2F340F002020020020F1
:1013F0001C02002010B500F0E3F8002010BD000032
:1014000070B504460D46284604F02EFF20460AF02B
:1014100075F820460AF0FEF90022034903480068E7
:101420000AF0F4F970BD0000ED1400080C02002071
:1014300001464878704770B5044625462C466888B2
:1014400004F089FE70BD00002DE9F04104460D4610
:10145000164600274FF40A7004F08CFF074637B990
:1014600039462046FFF7CCFF0020BDE8F08119483F
:101470000760022038602868C7F80C02C7F81062BD
:101480000020C7F81402C7F818023A46124920464D
:101490000AF0BCF9114804600120114908700020CD
:1014A000104908700B490C390860FFF767FC0E48BB
:1014B0000068FFF749FC0C480068064908390860D5
:1014C000324629462046D7F8143200F03DF8002075
:1014D000CBE7000010020020011600088800002061
:1014E0008000002081000020180200202DE9F05F1C
:1014F00082468B4614461D460A9E0AF04DF98046E8
:10150000B8F1000F01D1BDE8F09F00220D4940461F
:1015100009F024FC8146B9F1000F00D0F3E76068C0
:10152000FFF786FF0746022F03D040460AF072F904
:1015300004E0324629464046FFF786FF204605F084
:10154000ABFCE0E778BF00082DE9F84304460D4600
:1015500016461F460421684600F02DF8B9B26846C9
:1015600000F01FF803220421002005F05CFA8046F9
:10157000B8F1000F03D14FF0FF30BDE8F88304222B
:101580006946D8F80400FEF711FEB3B22A46414678
:1015900020460AF05FF98146404605F07DFC48464A
:1015A000EBE770B504460E462546304604F0C7FD0D
:1015B0002C46688070BD00220270417070470000A8
:1015C00070B545250AF0E8F80A4908600846006841
:1015D00000B970BDAAB208490648006809F0BEFB10
:1015E00004462CB900220549024800680AF00EF9A9
:1015F000EFE700000C02002078BF0008ED1400089F
:101600002DE9F047ADF5007D04460D4616461F4610
:10161000DDF82082A1464FF0000A708931898842A6
:1016200003D00DF5007DBDE8F087708904283DDD0D
:101630007068FFF700FFD9F81412491C884235D1B1
:101640007089001F82B204236946304605F0D7FB3B
:101650007089001F2B49096808442A49086071896C
:10166000081FC11700EB9171C1F38F0A7189081F20
:10167000C11700EB91718910B0EB810103D00AF121
:1016800001001FFA80FA524669461E48001DFFF706
:101690007BFBD9F81402401CC9F814027189091F98
:1016A000D9F818020844C9F818020CE07068FFF76E
:1016B000C2FED9F81412491C884204D1D9F8140288
:1016C000401CC9F81402424639462846D9F814325B
:1016D000FFF73AFF7089B0F5017F0EDA00200A4962
:1016E00008700A49087049462846FFF789FE3046C7
:1016F00005F0D2FBFFF750FE03E0304605F0CCFBCF
:101700008FE78EE704020020800000208100002087
:101710001FB50121084600F079FA40F60F64012157
:10172000880700F09BFF4FF4A06000F025FA1C2012
:101730008DF80C0003208DF80D0000208DF80E00B0
:1017400001208DF80F0003A800F0D4F901218807CB
:1017500000F093FF00220121880700F0AEFF002176
:101760004FF0804000F08CFFADF800400020ADF855
:101770000600ADF80200C820ADF804006946C006B6
:1017800000F0AAFF0121880700F077FF012211462F
:10179000900700F092FF00214FF0804000F099FF89
:1017A0000121880700F06CFF1FBD000000B587B065
:1017B000FFF712FD04F0AAFD04F0AEFF0020069032
:1017C000059004900C4800F031FC0C4B0C4A0021B1
:1017D0008DE80E0004AB05AA06A90A4805F04CF8EE
:1017E000084805F099F8074802F0FEFA054805F0A8
:1017F000FFF807B000BD000016000020814D000872
:101800006D4E00082802002010B50446FFF784F84A
:1018100015480068201AFA2805D31348046008F018
:10182000FBFE00F0DFFF11480068201A41F288310A
:10183000884203D30D48046003F0F6F90C480068B1
:10184000201AB0F5FA7F03D30948046001F056FD71
:1018500008480068201A4EF66021884203D30548E4
:10186000046001F0B1FB10BD000000200400002066
:10187000080000200C00002010B5024803F022FBF5
:1018800010BD000028020020F8B504460D4617469A
:10189000FD2F00DDF8BD68460AF096F8002607E047
:1018A0002878009908700098401C00906D1C761CE8
:1018B000BE42F5DB68460AF087F83A4620460099B2
:1018C00002F0F2FCE6E700BFFEE7000070B586B06C
:1018D00005466D48006890B16B480668FEF713FD39
:1018E000012803D13146694809F0AEF9324667490B
:1018F0000620FFF7C9FF002063490860C2E0644882
:101900000068281A634909688842F7D3604805606F
:10191000614800780028F1D06048006818B95E4836
:101920005C49083108605D48006800F1410101220E
:10193000584808300068FEF766FC5649091D0860E3
:101940000846006800287ED00846006840782328B2
:1019500079D1084600688078083108600846006838
:10196000021FA1F108000168C91C6846FEF71EFCB1
:101970004B4800684B49D1F8EC1708444A490968BC
:1019800000EB01044FF0010048498870C8700C71E9
:101990004FEA142048714FEA144088714FF08800D4
:1019A000087248724FF0000041498872C87208738B
:1019B000FEF7A9FC012806D136480C300068011F4B
:1019C000684609F041F933480C300068021F694647
:1019D0000620FFF759FF31480068A8BB2D48001DBD
:1019E0000068C01C2B490C310968084410F8040C2D
:1019F00001062848001D0068C01C264A0C321268E7
:101A0000104410F8030C01EB00412248001D00684F
:101A1000C01C204A0C321268104410F8020C01EB72
:101A200000211C48001D0068C01C1A4A0C321268B4
:101A3000104410F8010C0844164908600846006874
:101A4000012804DA01E013E001E0012008601148F8
:101A5000001D0068C01C0F490C31096808440D497D
:101A6000083108600D480068401C0C49086002E01D
:101A700000200A49086009480068FF2802D10020B8
:101A80000649086006B070BD3400002056080020EA
:101A9000F4010020E0010020E9BF0020DC0100206B
:101AA000E8F7FF1F00F0FF1FF0F7FF1F46080020B8
:101AB000320E0020704708B500214FF0006000F0A2
:101AC00079F800214FF0006000F074F84FF4A06046
:101AD00000F052F83D208DF8000002208DF8010042
:101AE00000208DF8020001208DF80300684600F008
:101AF00001F808BD70B5002100230F22C4784CB353
:101B00001A4C246804F4E064C4F5E0644FEA14213C
:101B1000C1F1040322FA01F2447804FA03F1847853
:101B200004EA020444EA01014FEA0111104C06786C
:101B3000A155047804F01F054FF0010404FA05F4E0
:101B400005784FEA65154FF0E02606EB8505C5F8E8
:101B5000004109E0047804F01F040125A540054C6C
:101B60000678761144F8265070BD00000CED00E0B8
:101B700000E400E080E100E002490143024A116014
:101B8000704700000000FA050CED00E010B50028D9
:101B900007DA0A07130E054A00F00F04241F135535
:101BA00003E00A07130E024A135410BD18ED00E0BB
:101BB00000E400E0024A0A400243024B1A60704708
:101BC00080FFFF1F08ED00E07047000029B1064AC2
:101BD00052690243044B5A6104E0034A526982434A
:101BE000014B5A61704700000010024029B1064ABB
:101BF000926A0243044B9A6204E0034A926A824367
:101C0000014B9A62704700000010024029B1064A59
:101C1000D2690243044BDA6104E0034AD269824389
:101C2000014BDA61704700000010024029B1064AFA
:101C300092690243044B9A6104E0034A9269824329
:101C4000014B9A6170470000001002402DE9F041FD
:101C500000210022002300240025002600278C46B6
:101C6000DFF86481D8F8048008F00C0121B1042960
:101C700007D0082959D109E0DFF85081C0F8008069
:101C800058E0DFF84881C0F8008053E0DFF8388181
:101C9000D8F8048008F47012DFF82C81D8F804809A
:101CA00008F48033920C0D2A01D0921C00E0062229
:101CB00033B9DFF81C8102FB08F8C0F8008033E07C
:101CC000DFF80481D8F82C8008F48035DFF8F8803C
:101CD000D8F82C8008F00F0808F1010645B9DFF8A4
:101CE000EC80B8FBF6F808FB02F8C0F800801BE0B7
:101CF000DFF8D480D8F82C80C8F3031808F1010766
:101D0000DFF8C480D8F82C80C8F3032808F1020C4F
:101D1000DFF8B880B8FBF7F808FB0CF8B8FBF6F86A
:101D200008FB02F8C0F8008004E0DFF8A080C0F8EB
:101D3000008000BF00BFDFF89080D8F8048008F072
:101D4000F0010909DFF88C8018F80140D0F8008014
:101D500028FA04F8C0F80480DFF86C80D8F8048012
:101D600008F4E061090ADFF86C8018F80140D0F847
:101D7000048028FA04F8C0F80880DFF84C80D8F80E
:101D8000048008F46051C90ADFF8488018F801405F
:101D9000D0F8048028FA04F8C0F80C80DFF8288016
:101DA000D8F8048008F44041890BDFF8288008F156
:101DB000100818F80140D0F80C80B8FBF4F8C0F80F
:101DC0001080BDE8F08100000010024000127A008F
:101DD00000093D00CC0000200149C8717047000097
:101DE0000010024010B50021262005F0A5FA024996
:101DF00008700846007810BD250200200EB5114875
:101E0000FEF7A0FD0F4968460EC90EC00D480068D8
:101E100040F2DC51884205D80A48026841680A4805
:101E2000FEF7C4F94FF0004006498968086007488A
:101E3000406910F0800F04D08020044948610020E0
:101E400088600EBD74BC002098B60020009002404F
:101E500010B501F004F80021862005F06DFA01218B
:101E6000872005F069FA6421892005F065FA0521CB
:101E70008A2005F061FAEA218B2005F05DFAEA215B
:101E80008C2005F059FAEA218D2005F055FA00F072
:101E9000E3F80721ED2005F04FFA0021F92005F0C5
:101EA0004BFA0021FA2005F047FA10BD70470000F8
:101EB00070B505461648007810BB16480068F8B1A2
:101EC00001231448006882B213491448006808F0DE
:101ED000E1FB044600200F49086024B90F48006860
:101EE00006F060FE12E00E480078401C0C490870B5
:101EF00008460078322809DB0020087000BF05E0A2
:101F00000448006810B100200249086070BD00005C
:101F10001C00002048000020320E00205800002045
:101F20004C00002010B500F001F810BD0020002189
:101F30003A4A126842F48032384B1A6000BF374A7E
:101F4000126802F40031401C11B9B0F5A06FF6D14F
:101F5000324A126812F4003F01D0012100E0002152
:101F600001295AD12E4A126842F010022C4B1A60F5
:101F70001A46126822F003021A601A46126842F0EA
:101F800002021A60254A5268244B5A601A46526867
:101F90005A601A46526842F480625A601A46D26AFF
:101FA000204B1A401D4BDA621A46D26A1E4B1A4366
:101FB0001A4BDA621A46126842F080621A6000BF59
:101FC000164A126812F0006FFAD0144A526822F4CE
:101FD0007C12124B5A601A46526842F4E8125A6058
:101FE0001A46126842F080721A6000BF0B4A1268EB
:101FF00012F0007FFAD0094A526822F00302074B20
:102000005A601A46526842F002025A6000BF034A00
:10201000526802F00C02082AF9D170470010024001
:102020000020024000F0FEFF4406010010B5044607
:1020300020780849087060784870A0788870E07847
:10204000C870207908716079487121460020FEF738
:10205000F5FB10BD8801002010B5D448C068C4B29B
:10206000AC219C2005F068F940219D2005F064F921
:102070009C21A02005F060F90021A12005F05CF969
:10208000D121A22005F058F9B721A32005F054F979
:102090000021A42005F050F95321A52005F04CF9AA
:1020A000AC21B02005F048F98C21B22005F044F9AC
:1020B0000221B32005F040F90821B42005F03CF9D5
:1020C0002A21B52005F038F92D21B62005F034F984
:1020D000D421B72005F030F90021B82005F02CF903
:1020E0000021B92005F028F90021BA2005F024F9D3
:1020F0000021BB2005F020F90021BC2005F01CF9CF
:102100000021BD2005F018F90021BE2005F014F9CA
:102110000021BF2005F010F90021C02005F00CF9C6
:102120000021C12005F008F90021C22005F004F9C2
:10213000FF21C32005F000F9FF21C42005F0FCF8C1
:10214000FF21C52005F0F8F8FF21C62005F0F4F8BE
:102150000021D62005F0F0F89D21EE2005F0ECF8E6
:102160004921EF2005F0E8F82C21F02005F0E4F8F3
:102170002B21F12005F0E0F85021F22005F0DCF8E9
:10218000142C17D2DFE804F00A1724313E4B5865AF
:10219000727F8C99A6B3C0CDDAE7F6F45321F5200F
:1021A00005F0CAF84B21F62005F0C6F80021F7200B
:1021B00005F0C2F8F8E05321F52005F0BDF84D21F7
:1021C000F62005F0B9F88021F72005F0B5F8EBE02E
:1021D0005321F52005F0B0F85021F62005F0ACF8B9
:1021E0000021F72005F0A8F8DEE05321F52005F0E6
:1021F000A3F85221F62005F09FF88021F72005F082
:102200009BF8D1E05321F52005F096F85521F620F2
:1022100005F092F80021F72005F08EF8C4E0532174
:10222000F52005F089F85721F62005F085F8802182
:10223000F72005F081F8B7E05321F52005F07CF890
:102240005A21F62005F078F80021F72005F074F8FF
:10225000AAE05321F52005F06FF85C21F62005F087
:102260006BF88021F72005F067F89DE05321F520F9
:1022700005F062F85F21F62005F05EF80021F720F6
:1022800005F05AF890E05321F52005F055F861214A
:10229000F62005F051F88021F72005F04DF883E095
:1022A0005321F52005F048F83221F62005F044F8D6
:1022B0000021F72005F040F876E05321F52005F0E5
:1022C0003BF83421F62005F037F88021F72005F09F
:1022D00033F869E05321F52005F02EF83721F62078
:1022E00005F02AF80021F72005F026F85CE05321DC
:1022F000F52005F021F83921F62005F01DF88021A0
:10230000F72005F019F84FE05321F52005F014F8F7
:102310003C21F62005F010F80021F72005F00CF81C
:1023200042E05321F52005F007F83E21F62005F0A4
:1023300003F88021F72004F0FFFF35E05321F5205A
:1023400004F0FAFF4121F62004F0F6FF0021F72007
:1023500004F0F2FF28E05321F52004F0EDFF4321C3
:10236000F62004F0E9FF8021F72004F0E5FF1BE0F0
:102370000DE0FFE75321F52004F0DEFF4621F620B3
:1023800004F0DAFF0021F72004F0D6FF0CE053211F
:10239000F52004F0D1FF4821F62004F0CDFF802184
:1023A000F72004F0C9FF00BF00BF10BD340F0020AC
:1023B00070B59AB006463A480078002867D1394887
:1023C0000078002863DD37480578FF208DF8040089
:1023D000AA208DF80500344880788DF80600324830
:1023E000C0788DF80700304800798DF808002E4835
:1023F00040798DF809002C4880798DF80A00022078
:102400008DF80B002848007A8DF80C002648407A99
:102410008DF80D0000208DF80E008DF80F008DF85E
:1024200010002A4621490DF11100FDF7BFFEAA2137
:1024300001AA05F10D001154FF21401C1154242163
:10244000401C11540D21401C11540A21401C1154F0
:10245000123501232A4601A91548006808F01AF927
:10246000044600200F49087024B91148006806F09E
:1024700099FB13E00F480078401C0E49087008468D
:10248000007832280ADB0020087000BF06E005480B
:102490000078002802DD0020024908701AB070BDE3
:1024A0001C000020240200204608002061C50020F6
:1024B000580000205400002010B50446FDF723FF0B
:1024C00001280BD1064804F0C9FE064908700846E9
:1024D0000078002802DD0020FFF76AFF10BD000031
:1024E00061C500202402002006490968411AB1F59F
:1024F000FA7F06D30349086003490968491C024A68
:10250000116070472C0000202400002010B500F05E
:102510007FF910BD10B51648006840F0010014495D
:102520000860084640681349084011494860084659
:102530000068114908400E4908600846006820F408
:10254000802008600846406820F4FE004860084685
:10255000006820F0A05008604FF47F0088600020E1
:10256000C862FFF7DFFC4FF000600449086010BD4F
:10257000001002400000FFF0FFFFF6FE08ED00E053
:1025800010B586B0FFF7C6FF00234FF416520221A4
:10259000184601F047FD01F031FD01214FF4E03014
:1025A000FFF714FB012140F27D20FFF73FFBFFF70F
:1025B00082FAFEF761FCFEF70BFB01A8FFF746FB72
:1025C00064210198B0FBF1F4B4F1807F00D311E0F5
:1025D00024F07F40401E4FF0E02148610F214FF072
:1025E000FF30FFF7D3FA00204FF0E0218861072089
:1025F000086100BF0121881EFFF7C8FA06B010BDB0
:1026000010B50121880700F047F880B10121880743
:1026100000F030F80121880700F02FF80448006826
:102620000A300349086008460068FFF75DFF10BDE7
:10263000B400002010B50121074800F02DF848B182
:102640000121054800F016F80121034800F015F8B3
:1026500004F080FD10BD00000004004021B102889C
:1026600042F08002028004E002884FF67F731A4035
:1026700002807047CA4302827047CA430282704791
:1026800021B1028842F00102028004E002884FF684
:10269000FE731A400280704730B5024600200023C6
:1026A0000024158A05EA0103958905EA010413B19E
:1026B0000CB1012000E0002030BD10B51AB18389B3
:1026C0000B43838104E08389CC43A4B223408381FC
:1026D00010BD818470470000002202881D4B984283
:1026E0000ED01D4B98420BD0B0F1804F08D01B4B41
:1026F000984205D01A4B984202D01A4B984204D106
:102700004FF68F731A404B881A43174B984207D0E5
:10271000164B984204D04FF6FF431A40CB881A4319
:1027200002808B8883850B8803850A4B98420BD0E7
:10273000094B984208D00E4B984205D00D4B984259
:1027400002D00D4B984201D10B7A0386012383827C
:1027500070470000002C014000340140000400409C
:1027600000080040000C0040001000400014004031
:1027700000400140004401400048014010B50446BB
:102780000F480068201A41F28831884217D30C485C
:1027900004600C48007830B10C220BA10120FEF738
:1027A00068FB04F05FFF0B48007840B9012009493D
:1027B00008700C2208A1FEF75CFB08F04DFE10BD6E
:1027C000280000201C0000205443505F52657472A2
:1027D000790D0A001D0000205544505F5265747247
:1027E000790D0A000848007868B108480078401C54
:1027F0000649087008460078552804DD0020024983
:102800000870024908707047800000208100002095
:102810007047000010B540F225510F4800F03DF818
:10282000012807D140F225510B4800F01BF804F0B5
:1028300099FC10E040F22771074800F02EF80128BB
:1028400002D104F097FC06E00348008803490860C1
:1028500003480088086010BD00440040FC010020CF
:102860000444004010B500220023A1F510646A3C26
:1028700000D100BF0A1201249440A3B2DC430480BB
:1028800010BD21B1828942F40052828104E0828924
:102890004DF6FF731A408281704770B502460023DF
:1028A000002400250020A1F510666A3E00D100BF7B
:1028B000C1F3421501F01F04012606FA04F4012DAC
:1028C00002D19689344006E0022D02D1168A3440A6
:1028D00001E0968A34400B12012606FA03F31688AB
:1028E000334014B10BB1012000E0002070BDF0B501
:1028F0000024002500260023A1F510676A3F00D1BF
:1029000000BF0346C1F3421401F01F05012707FA77
:1029100005F6012C01D10C3304E0022C01D1103357
:1029200000E014331AB11F6837431F6002E01F68CC
:10293000B7431F60F0BD00002DE9F04786B00446A4
:102940000D460026002700BFB146B246A88900B157
:1029500000BFA246268A4CF6FF700640E888064370
:102960002682A6894EF6F3100640A88829890843D6
:10297000698908430643A681A68A4FF6FF400640B0
:10298000A8890643A68201A8FFF760F954461F48AC
:10299000824501D1049F00E0039FA08910F4004FFD
:1029A00008D007EBC70000EB071029684900B0FB0F
:1029B000F1F807E007EBC70000EB07102968890072
:1029C000B0FBF1F86420B8FBF0F006013009642197
:1029D00001FB1089A08910F4004F09D0322101EBCE
:1029E000C9006421B0FBF1F000F00700064308E0E5
:1029F000322101EB09106421B0FBF1F000F00F006F
:102A00000643268106B0BDE8F0870000003801408B
:102A100001468888C0F308007047C1F3080282802D
:102A2000704700BFFEE7000040F08001014A1160DE
:102A300070470000002C004000F07F01014A116047
:102A400070470000002C00400021054A126822F463
:102A5000C07141EA0001034AC2F8041C704700003B
:102A6000042C0040002000400021064A126822F099
:102A70007F0100F07F0242EA0101034AC2F8041C10
:102A800070470000042C0040002000407FB5044641
:102A90000D4672B6FEF772F9684694E84E004EC0D5
:102AA0000448FEF7DBF8042269460248FEF72CF9D9
:102AB00062B67FBD00F803080FB410B504A9074B38
:102AC00002AA039800F01CF8044602A9002000F0B6
:102AD000C1F9204610BC5DF814FB0000552E00081B
:102AE00002E008C8121F08C1002AFAD170477047D7
:102AF000002001E001C1121F002AFBD17047000035
:102B00002DE9FF4F8DB005468846002669E125284E
:102B10007ED100246D1CB949A146A24601222B7822
:102B2000203B02FA03F0084202D004436D1CF6E792
:102B300028782A2816D158F8049BB9F1000F03DA37
:102B400044F40054C9F1000944F002046D1C10E083
:102B500009EB890002EB400044F0020401EB00099C
:102B60006D1C01E06FF02F022978A1F130000928D7
:102B7000EED928782E2818D115F8010F44F0040456
:102B80002A280BD158F804AB6D1C0EE00AEB8A0022
:102B900002EB400001EB000A6D1C01E06FF02F0218
:102BA0002978A1F130000928F0D928786C280ED0B6
:102BB00008DC4C2816D068280CD06A2813D144F4BD
:102BC00000140FE074280DD07A280CD10AE044F4E8
:102BD000801401E044F440146978814202D16D1CF4
:102BE00004F580146D1C2878692806D017DC0028AD
:102BF00076D0632843D064288AD10A2758F8040B7A
:102C0000C4F30251032900D100B2042902D100E02B
:102C1000EFE040B2002871DA40422D2171E06E28C9
:102C200010D0732836D07528E6D10A2758F8040B3F
:102C3000C4F30251032900D180B2042900D1C0B2EB
:102C4000002161E0C4F30250022806D1D8F8001038
:102C5000F217C1E9006240460EE0032804D1D8F81B
:102C6000001040460E8007E00428D8F800104046C7
:102C700001D10E7000E00E6000F10408B0E058F8D9
:102C8000041B8DF82C1000208DF82D000DF12C0B5D
:102C9000012003E058F804BB4FF0FF3061074FF00C
:102CA00000070AD500E07F1C57450EDA8742FADBA1
:102CB0001BF807100029F6D107E000E07F1C8742CF
:102CC000FCDB1BF807100029F8D1DDE90F23A9EB85
:102CD00007092146484600F0A6F83044C61905E029
:102CE00083E0DDE90F121BF8010B90477F1EF8D23D
:102CF000DDE90F23214648466FE0FFE7210505D5B2
:102D00002B218DF80C100121019103E0E10797D0F0
:102D10002021F6E70DF1300B08E03946FDF799FA6E
:102D2000ABF1010201F13001934611700028F4D19A
:102D300004A9A1EB0B0000F120000290600702D56E
:102D400024F4803401E04FF0010A029A00209245F9
:102D500001DDAAEB02008246019910440144A9EB6F
:102D600001000C90E00306D4DDE90F2321460C9806
:102D700000F059F8064400270DF10C0906E0DDE9E2
:102D80000F1219F807009047761C7F1C01988742A4
:102D9000F5DBE0030CD5DDE90F2321460C9800F0AC
:102DA00042F8064404E0DDE90F1230209047761C1B
:102DB000BAF10000AAF1010AF5DC05E0DDE90F1225
:102DC0001BF8010B9047761C0298411E02910028C7
:102DD000F4DCDDE90F2321460C9800F011F80644DD
:102DE0006D1C287800287FF492AE304611B0BDE803
:102DF000F08FDDE90F129047761CF1E709280100FA
:102E00002DE9F0410446002517461E46880407D5E3
:102E100004E039462020B04705F10105641EF8D5CD
:102E20002846BDE8F0812DE9F04104460025302711
:102E300090461E46C80300D42027880407D404E027
:102E400041463846B04705F10105641EF8D52846CD
:102E5000BDE8F0810A68531C0B601070704710B514
:102E60000021032004F068FA0021042004F064FA31
:102E700010BD70B504460D4600BF14B900BF00BFB9
:102E800070BD00BF206A58B1206A007B082807D1B6
:102E90002868216A496A884202D1204600F072F906
:102EA000EEE77CB5044600BF14B900BF00BF7CBD8F
:102EB00000BF266A00BF16B900BF00BFF7E700BF1A
:102EC000706B401C0ED0706B1E303C21B0FBF1F5D6
:102ED000B5F5803F01D34FF6FF75B583B08B08B9C8
:102EE0000120B083B06B401C0ED0B06B1E303C2173
:102EF000B0FBF1F5B5F5803F01D34FF6FF75F583D3
:102F0000F08B08B90120F083B08BF18B884204DB91
:102F1000F08B002801DD0020B083B07B10B1B06AD7
:102F2000019010E096F824007F2802DCFF21019137
:102F300008E0C02803DB6FF07F41019102E04FF60B
:102F4000FF71019100BFF06A0090BDF1000001D057
:102F5000009838B9706A019908400090009840F0D4
:102F60008070009006F12401204603F0F7FC01A9CF
:102F7000204603F037FD6946204603F0E8FC204672
:102F800003F036FD0A21304600F026FF8FE72DE9D9
:102F9000F0410446256A0821284600F01DFF002262
:102FA00005F12401204601F09BFC0746687B401C8C
:102FB00068734FF4FA7606F2F310314690FBF1F0A5
:102FC0006883BDE8F081000010B5114804681BE07B
:102FD000206AC0B1206AC08B216AC98B491E226A4F
:102FE000D183012803D1204600F0A6FF0BE0206A20
:102FF000808B216A898B491E226A9183012802D124
:10300000204600F089FF2468002CE1D110BD0000AB
:10301000040100202DE9F04104460D46164600BF8C
:103020002CB900BF00BF6FF00D00BDE8F08100BFFC
:1030300000BF25B900BF00BF6FF00500F5E700BF76
:1030400000BF286908B100BF00BF00BF00BF6869AA
:1030500008B100BF00BF00BF00224FF49A711046B4
:1030600003F0E1FC2861286910B94FF0FF30DCE77C
:1030700000BF28694089B0F59A7F01D200BF00BF28
:1030800000BF687B20B93D480068401C3B49086090
:103090003A480068286028694068686101206969C9
:1030A00008706969487094F82A006969887000207E
:1030B0006969C870286803F035F8696948600020BC
:1030C00069690881696948816969C860082E09D001
:1030D000042E07D0032E08D1287B052802D0287B98
:1030E000042802D160686969C860002069690861C4
:1030F000696948616969886100270EE094F82A00CF
:10310000B84203DD04F12B00C05D00E00020C1B235
:1031100068691C30C155781C87B2102FEED3002788
:1031200005E0002168692C30C155781C87B2402F1A
:10313000F7D3002705E0002168696C30C155781C81
:1031400087B2802FF7D30E486969C1F8EC000020E0
:103150002883002704E06869F030C755781C87B2DF
:10316000442FF8D301223521284600F057F9314683
:10317000284600F06AF9002057E70000F000002020
:10318000638253632DE9F8430446256A00260C2127
:10319000284600F021FE042229462046FFF73AFF88
:1031A0000646FEB904223221284600F037F9686A43
:1031B00002F0CBFF80460146284600F087F92846FA
:1031C00000F0C2F92A8BF03291B2286903F007FFB0
:1031D000009443230B4A2969686808F05FFB28467E
:1031E00000F012F8687B401C687342F2107707F217
:1031F000F3104FF4FA7190FBF1F068833046BDE8AC
:10320000F88300007CBF000810B5044600BF14B965
:1032100000BF00BF10BD00BF00BF206908B900BFDC
:1032200000BF00BF00BF606908B900BF00BF00BF9A
:10323000206910B1206903F02FFE00202061606139
:10324000E8E70000F8B50446256A00260020686219
:103250000621284600F0C0FD012229462046FFF73E
:10326000D9FE0646002E30D102223921284600F030
:10327000D5F8218D284600F050F904223721284640
:1032800000F0CCF80121284600F0DFF803212846A1
:1032900000F0DBF81C21284600F0D7F8062128466C
:1032A00000F0D3F8284600F04FF92A8BF03291B2A3
:1032B000286903F094FE009443230F4A2969686843
:1032C00008F0ECFA2846FFF79FFF687B401C687304
:1032D000687B062803DA697B0120884000E03C20F7
:1032E0004FF47A71484387B207F2F310491090FB0C
:1032F000F1F068833046F8BD7CBF000810B50F4878
:10330000046818E0206AA8B1206A408B012805DD16
:10331000206A408B401E216A48830BE0206A408B64
:10332000012807D1206A408B401E216A488320462D
:1033300000F012FE2468002CE4D110BD040100202E
:1033400070B50446256A0020A862E8621848C07873
:1033500010B11848C06828631548007918B115489D
:103360000069686302E0286B400868631048407990
:1033700018B110484069A86301E0286BA863A868E9
:10338000006968620A48807938B10A49886902F0A0
:10339000C9FEA8620120A87301E00020A8730448B8
:1033A000C07920B10349C86902F0BCFEE86270BD73
:1033B0006C0F0020440F002070B50446256A20469B
:1033C00003F0B0FA0949204603F0C8FA074920463D
:1033D00003F0BDFA0549204603F004FB0C21284602
:1033E00000F0FAFC2046FFF72DFF70BD78BF000803
:1033F00070B50446256A0748807850B10649886848
:1034000002F090FE2862A86800696862204600F019
:1034100069FC70BD6C0F0020440F002010B500BF88
:10342000038B9B1C1344442B01D900BF00BF00BF7A
:10343000048B631C03834369F0331955048B631CAD
:1034400003834369F0331A5510BD00BF028B442A31
:1034500001D300BF00BF00BF038B5A1C0283426927
:10346000F032D15470472DE9F04705460E46706A98
:10347000002829D0706AFCF7BEFE07461FB3746AA5
:10348000288BC0F1410900BF4F4501D900BF00BFE3
:1034900000BF4F4501D2384600E0484600F0FF0823
:1034A00042460C212846FFF7B9FF04E014F8011B3F
:1034B0002846FFF7CAFF5FEA0800A8F1010101F002
:1034C000FF08F3D100BF00BFBDE8F08710B500BF13
:1034D000028B121D442A01D900BF00BF00BF0B0E92
:1034E000048B621C02834269F0321355C1F3074317
:1034F000048B621C02834269F0321355C1F3072327
:10350000048B621C02834269F0321355048B621CE7
:1035100002834269F032115510BD10B500BF028B15
:10352000921C442A01D900BF00BF00BF0B0A048BC4
:10353000621C02834269F0321355048B621C0283C1
:103540004269F032115510BD00BF10B900BF00BF75
:10355000704700BF00BF416909B900BF00BF00BF8D
:1035600000BF018B442901D300BF00BF00BFFF2271
:10357000038B591C01834169F031CA5406E00022D3
:10358000038B591C01834169F031CA54018B4429D2
:1035900003D3018B11F0030F02D0018B4429EED32A
:1035A000D6E700002DE9F34F89B00C4600200790C4
:1035B00006900A21E348FCF712FE60892C2804DA01
:1035C0006FF001000BB0BDE8F08F6068099988606A
:1035D0004FF0F008B4F8089000BF08940EE0089887
:1035E0004089A8EB00001FFA80F808984089A9EBF1
:1035F00000001FFA80F9089800680890089818B130
:10360000089840894045EADD089810B96FF001003C
:10361000D8E746464F46089845685DE1A85D0590A5
:10362000002003904FF0FF3AB01C80B2029008983F
:103630004189701C814202DD285C04900AE00898F0
:10364000006820B1089800684068007800E0002019
:10365000C0B2049004980390059834286AD00BDC1B
:10366000032825D003DC80B1012870D113E006289F
:103670002ED03328F9D150E035286CD0362877D0B9
:103680003A2867D03B28F0D18CE0002004900390CA
:10369000701E86B296E000BF0498042804D000BFD4
:1036A00000BF6FF005008DE700BF4FF0060A89E00C
:1036B0000420039000BFDDE90310884204DA00BF54
:1036C00000BF6FF005007DE700BF4FF0070A79E00B
:1036D00000BF0498C11700EB91718910B0EB810114
:1036E00004D000BF00BF6FF005006BE700BF049877
:1036F000082801DA049800E00820C0B2039000BF57
:10370000DDE90310884204DA00BF00BF6FF0050056
:1037100058E700BF4FF0080A54E000BF049804289F
:1037200004D000BF00BF6FF005004BE700BF4FF0B3
:10373000030A47E000BF0498012804D000BF00BF7F
:103740006FF005003EE700BF4FF0000A3AE036E0B8
:1037500001E00DE019E000BF0498012804D000BF8B
:1037600000BF6FF005002DE700BF4FF0010A29E010
:1037700000BF0498042804D000BF00BF6FF005000C
:1037800020E700BF4FF0020A1CE000BF04980428A5
:1037900004D000BF00BF6FF0050013E700BF4FF07B
:1037A000040A0FE000BF0498042804D000BF00BF43
:1037B0006FF0050006E700BF4FF0050A02E00020A9
:1037C000039000BF00BF0498801C304486B2039869
:1037D000002864DD0020019000BF00BFBAF1000F97
:1037E00002DBBAF10A0F01DB00BF00BF00BF554882
:1037F00010F80A00002851D10398042801DA039830
:1038000000E004201FFA80FB5A4601A9029B089899
:1038100003F0F5FA0398042823DD00BF0398C117CD
:1038200000EB91718910B0EB810104D000BF00BFA3
:103830006FF00500C6E600BF0120424901F80A000A
:10384000019802F06FFC404941F82A000398001FDC
:10385000C0B203900298001D80B202900AF1010AE2
:10386000BBE70398042804D1019802F06EFC019094
:103870000CE000BF0398012804D000BF00BF6FF028
:1038800005009FE600BF9DF80400019001202D492E
:1038900001F80A002C49019841F82A0000BF089855
:1038A0004089B04217DC08984089301A86B20898DF
:1038B0004089381A87B2BE420CDA5FB108980068B6
:1038C000089000BF089808B900BF00BF00BF089863
:1038D000456800E008E000BF089828B1A85DFF280F
:1038E00002D0BE42FFF69AAE00BF16480078A0B1E3
:1038F000154908680021134A1170012802D10121DD
:10390000079109E0022802D10121069104E0032871
:1039100002D101210691079100BF079830B1002024
:1039200007904FF06C084FF0EC0956E6069830B15E
:10393000002006904FF02C084FF06C094DE6002057
:1039400040E600006C0F0020440F0020F8B504464C
:10395000256A0421284600F03FFA03222946204622
:10396000FFF758FB0646FEB9022239212846FFF729
:1039700055FD218D2846FFF7D0FD21462846FFF74B
:1039800072FD2846FFF7E0FD2A8BF03291B22869DC
:1039900003F025FB009443230F4A2969686807F068
:1039A0007DFF2846FFF730FC687B401C6873687B0E
:1039B0000A2804DA687B4FF47A71484301E042F246
:1039C000107087B207F2F3104FF4FA7190FBF1F028
:1039D00068833046F8BD00007CBF00082DE9F8433D
:1039E0000446256A0321284600F0F6F903222946F9
:1039F0002046FFF70FFB06464EBB02223921284620
:103A0000FFF70CFD4FF410712846FFF786FD0422E6
:103A100032212846FFF702FD686A02F096FB8046D5
:103A200001462846FFF752FD2846FFF78DFD2A8BF9
:103A3000F03291B2286903F0D2FA00944323104A7D
:103A40002969686807F02AFF2846FFF7DDFB687BD5
:103A5000401C6873687B0A2804DA687B4FF47A712B
:103A6000484301E042F2107087B207F2F3104FF4BE
:103A7000FA7190FBF1F068833046BDE8F8830000EE
:103A80007CBF00082DE9F05F044615460A9E2746D4
:103A90003C46D7F82080D5F8049000BFD8F808003D
:103AA00008B100BF00BF00BF68892C2800DA74E0AD
:103AB00099F80000022800D06FE04FF0000B0EE0F4
:103AC00007F12B0010F80B1009F11C0010F80B0087
:103AD000814200D061E00BF1010000F0FF0B97F88C
:103AE0002A005845ECDCD9F8040002F02EFBD8F887
:103AF0000010884200D050E029464046FFF752FDB2
:103B000000B14AE02948407800B946E028484068BA
:103B100000F0FF0ABAF1050F1AD198F80C0001283D
:103B200006D13846FFF70CFC3846FFF730FA33E091
:103B300098F80C00032807D098F80C00042803D04C
:103B400098F80C00052827D13846FFF7AAF923E09A
:103B5000BAF1060F13D198F80C0003280BD098F88F
:103B60000C00012807D098F80C00042803D098F81E
:103B70000C00052803D13846FFF71EFC0CE0BAF113
:103B8000020F09D198F80C00062805D10020A8F8EA
:103B90001A003846FFF72CFC00BF0020C8F80800C8
:103BA000284603F079F9BDE8F09F00006C0F002073
:103BB000440F0020F8B50446256A0021284600F08D
:103BC0000BF9002028626862A862E862A863686353
:103BD0002863072229462046FFF71CFA06469EB9AD
:103BE0002846FFF7B1FC2A8BF03291B2286903F026
:103BF000F6F90094432305F120022969686807F06B
:103C00004DFE2846FFF700FB687B401C6873687B0D
:103C10000A2804DA687B4FF47A71484301E042F2E3
:103C2000107087B207F2F3104FF4FA7190FBF1F0C5
:103C30006883204602F076FE0649204602F08EFE9A
:103C40000449204602F083FE0249204602F0CAFEE3
:103C50003046F8BD78BF0008F8B50446256A05214E
:103C6000284600F0B9F8032229462046FFF7D2F98A
:103C7000064606BB022239212846FFF7CFFB218DDD
:103C80002846FFF74AFC21462846FFF7ECFB28466A
:103C9000FFF75AFC2A8BF03291B2286903F09FF9A2
:103CA0000094432305F120022969686807F0F6FDB6
:103CB0002846FFF7A9FA687B401C6873687B0A28CE
:103CC00004DA687B4FF4FA61484301E044F620606F
:103CD00087B207F2F3104FF4FA7190FBF1F06883AA
:103CE0003046F8BD2DE9F8430446256A01212846EF
:103CF00000F072F8032229462046FFF78BF90646AA
:103D0000002E4ED1022239212846FFF787FB218D54
:103D10002846FFF702FC042232212846FFF77EFBEB
:103D2000686A02F012FA804601462846FFF7CEFB89
:103D3000042236212846FFF771FB286A02F005FAB3
:103D4000804601462846FFF7C1FB0422372128465A
:103D5000FFF764FB01212846FFF777FB0321284684
:103D6000FFF773FB1C212846FFF76FFB062128464F
:103D7000FFF76BFB21462846FFF775FB2846FFF748
:103D8000E3FB2A8BF03291B2286903F028F9009402
:103D90004323104A2969686807F080FD2846FFF729
:103DA00033FA687B401C6873687B062803DA697BFA
:103DB0000120884000E03C204FF47A71484387B2EC
:103DC00007F2F310491090FBF1F068833046BDE82C
:103DD000F88300007CBF0008027B8A4203D0017395
:103DE000002242734283704770B50446002600BF2C
:103DF00024B900BF00BF6FF00D0070BD00BF54F8C4
:103E0000205F607C20F008006074607CA4F12004D6
:103E100010F0200F02D16FF00D00EEE7208DB0F50D
:103E2000107F02DA4FF0FF30E7E74DB93C2002F097
:103E3000A1FA054615B94FF0FF30DEE7256210E024
:103E4000686810B1686807F0E5FC00BF286908B130
:103E500000BF00BF00BF00BFA86808B100BF00BF1F
:103E600000BF3C212846FCF7BAF907F095FC6860D2
:103E7000686810B94FF0FF30BFE76868007A40F01B
:103E800020006968087244221049686806F066FFDD
:103E900043220E49686807F0FFFA22460C49686819
:103EA00007F0B4FC2046FFF7CDF906462EB12046B8
:103EB00000F010F84FF0FF309FE794F8310040F029
:103EC000080084F83100304697E7000078BF00080A
:103ED000853A000870B5054600BF15B900BF00BFA0
:103EE00070BD00BF2C6A95F8310020F0080085F8FD
:103EF000310084B1606820B1606807F08BFC00205D
:103F0000606000BFA06808B100BF00BF00BF002113
:103F10002046FFF761FFE3E770B50446256A287B7A
:103F2000012805D0287B0A2802D0287B052802D149
:103F30002046FFF791FE70BD70B50446256A287BC8
:103F4000012805D0287B0A2802D0287B052802D129
:103F50002046FFF7FBFC70BD70B50446256A287B40
:103F60000C2802D0287B062803D12046FFF76AF9E7
:103F700043E0287B01280DD1687B052803DC20461F
:103F8000FFF7B0FE39E02046FFF714FE2046FFF7AA
:103F900059F932E0287B08280AD1687B012803DC24
:103FA0002046FEF7F4FF28E02046FEF77AFF24E0E3
:103FB000287B052803D12046FFF74EFE1DE0287B15
:103FC00004280DD1687B082803DC2046FFF7BEFCDF
:103FD00013E02046FFF7EEFD2046FFF733F90CE033
:103FE000287B032809D1687B022803DA2046FFF7E3
:103FF000F5FC02E02046FFF725F970BD10B500245E
:1040000007480078012807D105481230006880472A
:1040100000200349087000E00624204610BD00007F
:10402000920100202DE9F04104460D4616461F4638
:104030004FF00008F4B91948194908601948091DDA
:10404000086019480839086018480C3108600020D9
:10405000091D086016481749086017481749086085
:104060001748184908603A463146284600F0D4F807
:10407000804602E04FF0020800BF00BFB8F1000F19
:1040800009D107F08BFD10B94FF0030803E00120C0
:104090000349123908704046BDE8F081F542000836
:1040A000A401002019430008A94200086D4200083D
:1040B00071BD0008B401002079BE0008B8010020DD
:1040C00005BE0008BC010020F8B500244E48007869
:1040D00008B10620F8BD684607F050FD012872D1EE
:1040E0009DF80000052804D2DFE800F00304166EF6
:1040F000860085E0444A0832911F081D00F1140330
:104100001B68984704461CB9022007F04FFD02E0E7
:10411000042007F04BFD73E03B4808300088FF287F
:104120004CDC39480830008838490860FF2038499D
:104130000870AA2048703748807888703548C07861
:10414000C870344800790871324840794871314864
:10415000807988710220C8712E48007A08722D4833
:10416000407A487200208872C87208732748026833
:104170002548801C016826480D30FCF717F8AA2155
:10418000234A224800680D301154FF211F4800685F
:104190000E30115424211D4800680F3011540D2198
:1041A0001A480068103011540A211848006811306C
:1041B0001154164800681230144908600120124951
:1041C0000A3108701CE01CE0012007F0D1FC0E4809
:1041D000801C07F0F9FB06F0BBFD054606F0B2FDBA
:1041E00006462A460848801C01683046064B0E33B6
:1041F0001B689847044603E0002007F0B9FC00BFA5
:1042000000BF002066E70000920100204800002067
:10421000320E0020460800202DE9F04104460D46EC
:1042200016460027FCF7D2FC3346082229462046D2
:1042300007F0D0FC012801D0032710E0B5F5964F18
:1042400002D94FF0230803E068000749B1FBF0F8FA
:104250001FFA88F007F056FD012800D00327FCF76D
:10426000FBFC3846BDE8F081A07F17002DE9F04146
:1042700007460C4615460026FCF7A8FC08480088AF
:10428000042806DB00BF0648008828800548206017
:1042900000E00526FCF7E0FC3046BDE8F0810000B8
:1042A000D2010020E9BE00202DE9F04104460D4670
:1042B00016460027102C02DD0220BDE8F081FCF735
:1042C00085FC0B48007801280DD10948801C056049
:1042D000001D068001200649491E087001210020AA
:1042E00007F078FB00E00527FCF7B6FC3846E4E76A
:1042F000CA01002010B5FCF769FC002005490870D0
:104300000021012007F066FB07F000FCFCF7A4FC8D
:1043100010BD0000CA01002010B5FCF757FC0021B9
:10432000084607F057FB07F0AFFBFCF795FC10BD04
:104330002DE9FC4704460D46164600BF1CB900BFD8
:1043400000BFBDE8FC8700BF70892A280EDA5948F3
:10435000408C401C81B257484184C08B401C81B2C4
:104360005448C183304602F097FDEAE7D6F804804E
:1043700008F10E073888B0F5807F08D13879062813
:1043800005D17879042802D1788808280ED04948C8
:10439000008D401C81B247480185C08B401C81B212
:1043A0004448C183304602F077FDCAE74148408B5C
:1043B000401C81B23F484183042207F10E0101A84D
:1043C000FBF7F4FE042207F118016846FBF7EEFE46
:1043D000201D01D0606810B94FF0000908E0009876
:1043E0006168884201D1012000E0002000F0FF094F
:1043F000B9F1000F01D0012000E00220C3B207F1A3
:10440000080201A9204600F055FCF888B0F5807F2D
:1044100003D0B0F5007F41D13BE0B9F1000F36D0B9
:10442000022001F08CFEF880042207F10E0107F152
:104430001800FBF7BBFE0422211D07F10E00FBF75D
:10444000B5FE00BF94F82A00062801D000BF00BFC7
:1044500000BF062207F1080107F11200FBF7A6FED4
:10446000062207F108014046FBF7A0FE0622294676
:1044700007F10800FBF79AFE0622294608F106001C
:10448000FBF794FE31462046A269904700E000BF4A
:104490000BE001A92046FEF7ECFC06E00548808D04
:1044A000401C81B20348818500BF00BF304602F046
:1044B000F3FC46E7B490002070B50446002512E0F6
:1044C00005EB8500094901EB8000867C4EB105EBC8
:1044D000850001EB80008068A04202D1284600F0F0
:1044E000E1F8681CC5B20A2DEADB70BDD09100204E
:1044F0002DE9FC5F04460D460A260A27B0464FF018
:1045000000094FF0000A00200190B346009000BF60
:1045100067E009EB8900624A02EB8000817CB8F118
:104520000A0F03D111B94FFA89F856E0002954D087
:1045300000BF012903D0022901DA00BF00BF00BF7C
:1045400064B109EB8902564B03EB82022068526882
:10455000904203D14FFA89F0BDE8FC9F012928D190
:1045600009EB89004E4A52F8200088B109EB890016
:1045700002EB8000C07C009A90422EDB4FFA89FB50
:1045800009EB8900464A02EB8000C07C009024E0E1
:1045900009EB8900424A02EB8000C07C50451CDBDD
:1045A0004FFA89F609EB890002EB800090F813A01E
:1045B00013E0022911DB09EB8900394A02EB800084
:1045C000C27C0198824208DB4FFA89F709EB890027
:1045D000334A02EB8000C07C019009F1010000F039
:1045E000FF09B9F10A0F94DB15F0020F05D1B8F1FC
:1045F0000A0F05D115F0010F02D14FF0FF30ABE7E4
:10460000B8F10A0F02DA08F0FF0925E00A2F0BDAE9
:1046100007F0FF0900BF09EB8900214951F820008C
:1046200008B100BF00BF0DE00A2E02DA06F0FF0954
:1046300008E0BBF10A0F02DA0BF0FF0902E04FF0CD
:10464000FF3089E700BFB9F10A0F01DB00BF00BFEF
:1046500000BF484600F026F800BFB9F10A0F01DBA1
:1046600000BF00BF00BF00BF09EB89000C4901EB90
:104670008000807C08B100BF00BF00BF34B109EBEF
:104680008901074A02EB810120684860002009EB9C
:104690008901034A02EB8101C8744FFA89F05BE794
:1046A000D091002010B5044604EB84000C4951F869
:1046B000200060B104EB8401094A52F8210002F0A5
:1046C000EBFB002004EB8401054A42F821000020A6
:1046D00004EB8401024A02EB8101887410BD0000E2
:1046E000D09100202DE9FC4704460D461646B04601
:1046F00000BF0CB900BF00BF00BF00BF0DB900BFB5
:1047000000BF00BF00BF0EB900BF00BF00BF0E2139
:10471000284602F01EFC40B14D484089401C4C49DF
:1047200048816FF00100BDE8FC872146306800F049
:1047300047FE08B1474F83E0306800F0F000E02802
:1047400015D101208DF8000000208DF801005E20B9
:104750008DF80200707800F07F008DF80300B078CB
:104760008DF80400F0788DF805006F4667E030683A
:10477000A1680840D4E901121140884210D0306885
:1047800080B2A0F57E41A9390AD014F10C0004D002
:10479000E06810B104F10C0802E06FF00300C2E71A
:1047A0002D48007800EB80002C4901EB8000807CD4
:1047B000022818DB2849097801EB8101274A02EB1E
:1047C0008101D8F80000496888420CD12048C08D8A
:1047D000401C81B21E48C1851F48027829462046E8
:1047E00000F03EF89FE74FF000091FE009EB890059
:1047F0001A4901EB8000807C022813DB09EB890158
:10480000164A02EB8101D8F800004968884209D1B4
:10481000114981F8009009F0FF022946204600F076
:104820001FF880E709F101004FFA80F9B9F10A0F8A
:10483000DCDB2A464146204600F052F873E700BF11
:104840003B4604F12B022946204600F0CBF96AE7EB
:10485000B490002080BF00087A010020D091002091
:1048600070B504460D46164600BF06EB86001B4990
:1048700001EB8000807C022801DA00BF00BF00BF8E
:1048800006EB8600154901EB8000807C022817D1D9
:1048900006EB860001EB8000C07CE42810DB06EB11
:1048A00086000A4602EB8000011D204600F084F9D4
:1048B00030B9032006EB8601084A02EB81018874B7
:1048C00006EB8600054901EB800000F10C0304F1C2
:1048D0002B022946204600F085F970BDD0910020BA
:1048E0002DE9F05F04460D46164604F12B074FF004
:1048F000FF382146286800F063FD38B9286800F0C9
:10490000F000E02802D00DB1286818B96FF00D0052
:10491000BDE8F09F01212846FFF7EAFD8146B9F185
:10492000000F08DA2EB15E48808C401C81B25C48D2
:1049300081844846ECE709EB89005A4901EB800085
:10494000807C30B9012009EB8901564A02EB8101D4
:10495000887400BF09EB8900524901EB8000807C1C
:10496000012808D009EB890001EB8000807C022837
:1049700001DA00BF00BF00BF09EB8900494901EB24
:104980008000807C012800D03EB92946204600F0F6
:1049900013F980460EB94046BAE700BF0EB900BF12
:1049A00000BF00BF09EB89003E4901EB8000807C1D
:1049B000022810DB3C4981F8009009EB8900394955
:1049C00001EB800000F10C033A463146204600F02E
:1049D00009F9804662E009EB8900324901EB800069
:1049E000807C01285AD14FF0000BB24615E000BF81
:1049F000BAF80A00BAF80810884204D1DAF80000C0
:104A000008B100BF00BF00BF9AF80C00012802D017
:104A10004FF0010B04E0DAF800A0BAF1000FE6D184
:104A200000BFBBF1000F14D0BAF808100022032019
:104A300001F0F9FF8246BAF1000F0ED03146504620
:104A400002F06BF948B1504602F026FA4FF0000A26
:104A500003E0B246504602F01BFBBAF1000F14D03F
:104A600009EB89000F4951F8200030B109EB8901A9
:104A70000C4A52F8210002F00FFA09EB89000949AB
:104A800041F820A04FF0000807E00548808C401C4A
:104A900081B2034881844FF0FF3800BF404637E7BA
:104AA000B4900020D09100207A0100202DE9FE4F23
:104AB00004460D4616461F46DDE90D9ADDF83080A6
:104AC0000020029000BF0CB900BF00BF00BF002251
:104AD0002A21032001F0A7FF8346BBF1000F09D173
:104AE0003448808C401C81B2324881844FF0FF30C2
:104AF000BDE8FE8F00BFBBF80A002A2801DA00BF1C
:104B000000BF00BFDBF80410019101990E31009144
:104B10000F9801F014FB0099C88000BF94F82A0098
:104B2000062801D000BF00BF00BF0622394600980A
:104B30000830FBF73BFB0622494600981230FBF792
:104B400035FB062231460198FBF730FB0622294649
:104B50000198801DFBF72AFB0422414600980E3085
:104B6000FBF724FB0422514600981830FBF71EFB8C
:104B70004FF4807100980180082000994880062138
:104B8000009801710421009841714FF4C1610198AE
:104B9000818159462046A269904702900548008BC2
:104BA000401C04490883584602F076F94FF0000B88
:104BB00002989DE7B49000207FB504460D4601237E
:104BC0000649201D8DE82300039304F12B03044ABA
:104BD00019462046FFF76AFF04B070BD86BF000883
:104BE00080BF00082DE9F04104460D46174698465F
:104BF0006E6800BF94F82A00062801D000BF00BFED
:104C000000BF062241463046FBF7D0FA062239465D
:104C1000B01DFBF7CBFA0820B08129462046A269D7
:104C20009047BDE8F081000070B500243DE004EB42
:104C300084001F4901EB8000857C25B304EB8400D0
:104C400001EB8000C07C401C04EB8401184A02EB9D
:104C50008101C87404EB8400114601EB8000C07C24
:104C6000F0280DDA04EB840001EB8000807C012841
:104C70000AD104EB840001EB8000C07C022803DB36
:104C80002046FFF70FFD0EE004EB8400084901EB1E
:104C90008000807C032806D1022004EB8401044AB2
:104CA00002EB81018874601CC4B20A2CBFDB70BDAA
:104CB000D09100202DE9F04704460D4616461F46C8
:104CC00000BF94F82A00062801D000BF00BF00BF33
:104CD0005DB1286848B12146286800F071FB20B911
:104CE000286800F0F000E02803D16FF00D00BDE867
:104CF000F08739462846FFF7FBFB8046B8F1000FE6
:104D000001DA4046F3E7022008EB88011B4A02EB78
:104D10008101887408EB8800114601EB80008460F3
:104D200008EB880102EB810101F10C0006223146FB
:104D3000FBF73CFA002008EB8801104A02EB8101E6
:104D4000C87408EB8800114651F8200098B108EBB0
:104D5000880051F82090002008EB880142F82100DB
:104D6000334604F12B0249462046FFF73BFF4846F5
:104D700002F092F800BF0020B9E70000D0910020B7
:104D80002DE9F04104460D464FF00E0860890E28CB
:104D90000BDC3448008D401C81B232480185C08B49
:104DA000401C81B22F48C18356E06668B7893078CD
:104DB00010F0010F16D03078012809D1707888B929
:104DC000B0785E280ED1607B40F01000607309E07F
:104DD000062225493046FBF720FA18B9607B40F0DF
:104DE00008006073082F03D0B7F5C16F24D116E017
:104DF00095F8310010F0200F00D12DE0C8F100002F
:104E000001B2204602F0A5F820B100BF00BF00BFEC
:104E100000BF21E02946204600F0ECFB18E095F8A1
:104E2000310010F0200F00D116E0224605F12B01D1
:104E30002846FFF77DFA0BE00A48008D401C81B23E
:104E400008480185C08B401C81B20648C18303E03D
:104E500000BF0020BDE8F081204602F01DF80020D0
:104E6000F8E70000B490002080BF000870B5054648
:104E700000BF0DB900BF00BF00BF082001F07AFAE3
:104E8000044614B94FF0FF3070BD0AA06862EC61AF
:104E9000732085F83200742133204155074868613A
:104EA0000748A86105F12B002060284601F0B4F8FE
:104EB0000020E9E7776A775F69700000E54600083F
:104EC000F160000870B50446204601F0EBF8064694
:104ED00016B94FF0FF3070BD214630462269904729
:104EE00005461DB1304601F0D7FF00262846F2E7FF
:104EF00070B504460D462A460321204600F01CF9F1
:104F000070BD00002DE9FE4F04460D468748B0F8FD
:104F10006200401C81B28548A0F86210D4F8048079
:104F200098F8000000074FEA9069C9F10001204697
:104F300002F00FF810B92089042800D2DEE0606882
:104F4000067816B1082E73D100E0D2E04FF0010AC6
:104F50007748006800F0F000E02801D14FF0000A27
:104F600073490868294600F02BFA08B14FF0000A8F
:104F7000BAF1000F0CD16D48B0F87400401C81B23A
:104F80006A48A0F87410204601F086FFBDE8FE8F45
:104F90002089082800D2B1E0204600F02CF958B151
:104FA000204601F079FF6148B0F86800401C81B2EA
:104FB0005E48A0F86810E9E72221204601F0C9FF09
:104FC00000283BD04946204601F0C3FF20B100BF76
:104FD00000BF00BF00BF9DE021890022022001F038
:104FE00022FD8246BAF1000F00D193E000BFBAF86B
:104FF0000A1009F10800814201D200BF00BF00BFC2
:105000002146504601F089FE20B100BF00BF00BF1D
:1050100000BF7FE0DAF80480C9F1000001B2504619
:1050200001F097FF28B100BF00BF00BF00BF71E0D3
:105030004FE0204601F030FF54460AE06FF02101B6
:10504000204601F086FF20B100BF00BF00BF00BFB7
:1050500060E0676836480068C8F80C0035480068AA
:10506000C8F810000020387078884FF6F771884231
:1050700003D378880930788002E078880830788017
:10508000FF2088F808000020A8F80A0014214046F4
:1050900000F0A7F8A8F80A002448B0F86000401C07
:1050A0002249A1F860004946204601F052FF18B19C
:1050B00000BF00BF00BF0BE001220021FF238DE8ED
:1050C00026000A461A49204600F0F6FB824600BF39
:1050D0000FE01648B0F87000401C81B21348A0F8E9
:1050E0007010B0F86600401C81B21048A0F866103D
:1050F00000BF00BF204601F0CFFE47E7204601F089
:10510000CBFE0A48B0F86A00401C81B20748A0F8FC
:105110006A103BE7204601F0BFFE0448B0F8740077
:10512000401C81B20148A0F874102FE7B490002011
:105130006C010020680100202DE9FE4304460D4665
:10514000164600222421012001F06DFC07460FB90C
:10515000BDE8FE8300BF7889242801D200BF00BFCC
:1051600000BFD4F80480D7F8049089F8005089F87B
:1051700001600020A9F80400A9F8060061687A68B7
:1051800002F108001C22FBF711F80020A9F8020028
:105190007989484600F025F8A9F802000B48B0F8D4
:1051A0006000401C0949A1F86000D8F80C0002908A
:1051B00001230022CDE90023FF2302AA0021384663
:1051C00000F04CFB384601F067FEC1E7B4900020C8
:1051D00070B504460D462A460B212046FFF7ACFF6A
:1051E00070BD70B504460D462946204600F0B9FF53
:1051F000C04380B270BD2DE9F04104460025002770
:10520000264617E07189706800F0ABFF0544A8B22C
:1052100000EB1545708900EBD0714910B0EB4101EE
:1052200007D0C7F10100C7B2E8B2C5F3072141EAD0
:1052300000253668002EE5D127B1E8B2C5F3072175
:1052400041EA0025E84380B2BDE8F0812DE9F05F36
:1052500004460D4616461F464FF00008C346A246B8
:105260001EE0BAF80A10DAF8040000F07AFF804471
:105270001FFA88F000EB1848BAF80A0000EBD0716A
:105280004910B0EB410109D0CBF1010000F0FF0B58
:1052900008F0FF00C8F3072141EA0028DAF800A06F
:1052A000BAF1000FDDD1BBF1000F05D008F0FF000F
:1052B000C8F3072141EA0028D5F800901FFA89F0C9
:1052C00080444FF6FF7000EA19408044D6F8009001
:1052D0001FFA89F080444FF6FF7000EA19408044BD
:1052E000384600F02CFF80440A9800F028FF8044E4
:1052F0001FFA88F000EB18481FFA88F000EB1848F6
:105300006FEA080080B2BDE8F09F000038B50121C7
:105310001420FCF78BFCB020ADF8000003208DF8C2
:10532000020010208DF8030069462248FBF730FE8A
:105330004020ADF8000003208DF8020048208DF8D1
:10534000030069461B48FBF723FE1020ADF8000060
:1053500003208DF8020028208DF8030069461648C6
:10536000FBF716FE2020ADF8000003208DF80200A8
:1053700010208DF8030069460F48FBF709FE48200E
:10538000FAF7CEFF42F21070FAF7FEFF20210A482A
:10539000FBF7D5FE0948FAF7F7FF0021362001F0A8
:1053A000CBFF0446FCF754FD00218E2001F0C4FF22
:1053B000652438BD0008014000100140400D030085
:1053C00018B502460092D04300D00AB9012018BD9A
:1053D00091F8310010F0020F01D10020F7E7486882
:1053E000904201D10020F2E7009B88680340D1E998
:1053F00001042040834208D1886822EA00008C68BA
:10540000E343984201D10120E1E70020DFE70000FB
:105410002DE9F74F8CB004460D98008D0A901420AA
:1054200006904FF0000B60680B900B9FF88800F01F
:1054300092FE05900598C0F30C000990059800F4C1
:1054400000500890208914381FFA80F90A99A1F1B8
:105450001400C11700EB5171C1F3CF08ADE00A98F9
:105460001438484501DB012000E0002080B207909D
:105470000998C0F30C00089908430590079818B9DB
:10548000059840F400500590079808B1484601E09F
:105490004FEAC8001FFA80FA00221421022001F00E
:1054A000C2FA054625B94FF0FF300FB0BDE8F08FC6
:1054B00000BF6089142801DA00BF00BF00BF1422BA
:1054C00068680B99FAF772FE6F686068069908447D
:1054D000606060890699401A6081CDF810A041E0B3
:1054E00060890499884201DD049800E060891FFA10
:1054F00080FBBBF1000F01D1246833E000F068F8B5
:105500000390039828B9284601F0C6FC4FF0FF30FD
:10551000CBE76268CDE9002B022259460320039BAA
:1055200001F08AFB064646B9039800F056F8284673
:1055300001F0B2FC4FF0FF30B7E7204601F0A8FDC4
:10554000039844612048039908613146284601F0D8
:10555000AAFB0498A0EB0B0080B20490049800B161
:10556000246800BF04980028BAD1CDF818B0059877
:1055700000F0E5FDF8800AF1140080B200F0DFFDD4
:1055800078800020788114213846FFF72AFE788140
:105590000D98436929460E9A98470C48008E401C86
:1055A0000A490886284601F077FCA9EB0A001FFA91
:1055B00080F90998404480B20990B9F1000F7FF456
:1055C0004EAF002071E70000E95F0008B4900020B2
:1055D00010B5062001F0EEF810BD10B5044600BF6E
:1055E0000CB900BF00BF00BF2146062001F066F8DD
:1055F00010BD00002DE9F05F04460D464FF0010A92
:105600009048B0F84A00401C81B28E48A0F84A1079
:10561000666830780421B1EB201F14D0204601F0D9
:105620003BFC8848B0F85C00401C81B28548A0F87B
:105630005C10B0F84E00401C81B28248A0F84E10B9
:105640000020BDE8F09F307800F00F084FEA88088E
:10565000708800F080FD81466089404502DB20892A
:10566000484513DA204601F017FC7648B0F852009E
:10567000401C81B27348A0F85210B0F84E00401C94
:1056800081B27048A0F84E100020DAE7414630465B
:10569000FFF7A7FD98B1204601F0FEFB6948B0F87E
:1056A0005000401C81B26748A0F85010B0F84E007E
:1056B000401C81B26348A0F84E100020C1E7494663
:1056C000204601F08CFC30695F490860F0685F4952
:1056D00008604FF0010B2F4600BF97F8310010F023
:1056E000010F0FD0381D0DD0786858B156480068AA
:1056F0007968884205D0544908683946FFF760FE4A
:1057000000B10DE0BBF1000F04D04FF0000B50488A
:10571000076800E03F68AF4200D13F68002FDCD14E
:1057200000BF67B9707A112809D106EB08004188DB
:10573000B1F5884F02D12F464FF0000A00BFBAF1F1
:10574000000F1CD04148D0B10068C0B13F49086883
:105750002946FFF735FE28B93C48006800F0F00004
:10576000E0280CD1204601F097FB3648B0F84E00F7
:10577000401C81B23348A0F84E10002061E727B9E1
:10578000204601F089FB00205BE7F0884FF63F716F
:10579000084207D0204600F043F904460CB9002027
:1057A0004FE766682B4805602B480660294620466F
:1057B00001F0E8FC00283AD1707A01280DD00628C3
:1057C00006D011280ED12946204605F09FFE2DE077
:1057D0002946204602F0ACFD28E029462046FFF786
:1057E00091FB23E0184908682946FFF7E9FD50B905
:1057F0001548006800F0F000E02804D0666002213F
:105800002046FFF775FB204601F046FB0D48B0F837
:105810005800401C81B20B48A0F85810B0F84E0058
:10582000401C81B20748A0F84E1000BF00BF002006
:10583000084908600849086004490860024908608E
:10584000FFE60000B49000206C01002068010020F9
:105850000401002060010020640100202DE9FE4FBA
:1058600004460D4616461F46DDE90C9A00BFE08946
:10587000012801D000BF00BF00BF304600F080FB10
:105880005FEA00080BD10B48B0F85600401C81B20B
:105890000848A0F856106FF00300BDE8FE8F3B46A5
:1058A000324629462046CDE9009ACDF8088000F01E
:1058B00003F8F2E7B49000202DE9FC5F04460D46A2
:1058C00016461F46DDF83890DDF830804FF0000BAB
:1058D00000BFE089012801D000BF00BF00BF002E3B
:1058E00078D0142000901421204601F032FB58B1EA
:1058F0004948B0F85C00401C81B24748A0F85C10F1
:105900006FF00100BDE8FC9FD4F804A000BF6089DF
:10591000142801D200BF00BF00BF8AF808700D989C
:105920008AF809000D9847EA002083443068CAF8D5
:105930001000DAF8100080B28344DAF810000BEBA4
:10594000104B0098C11700EB9171C1F3870141F032
:1059500040018AF800108AF801809AF8000040EAB5
:1059600008208344208900F0EAFBAAF80200BAF874
:10597000020083440020AAF806002848008800F0AE
:10598000DEFBAAF80400BAF8040083442348008828
:10599000401C224908800DB1286820B9D9F80400BC
:1059A000CAF80C0002E02868CAF80C00DAF80C000B
:1059B00080B28344DAF80C000BEB104B1FFA8BF02B
:1059C00000EB1B4B0BEB1B4B6FEA0B0BAAF80AB05F
:1059D00006E0FFE7D4F804A0DAF81000019001AE69
:1059E0000D48B0F84800401C0B49A1F84800B9F830
:1059F000280050B12089B9F82810884205DD3246C8
:105A000049462046FFF704FD7CE7324621464846DA
:105A1000D9F81430984775E7B49000207001002041
:105A20002DE9F84F0446002000906D48408E401C40
:105A300081B26B4841866668307800F00F0014210F
:105A4000B1EB800F08D06648B0F84400401C81B22A
:105A50006348A0F84410B8E0F08800F07CFBC00474
:105A60004FEA1049708800F076FB317801F00F01A1
:105A7000A0EB81001FFA80FA204601F045F9834629
:105A80005848018801EB0B000A2810DD59463046C2
:105A900000F038FA20B15348008858440A2806DD3F
:105AA0004F48808F401C81B24D4881878DE04D4822
:105AB000001F07681AE07869F168884209D1B8695F
:105AC0003169884205D1B889B188884201D1012065
:105AD00000E0002040B14248B0F84600401C81B2CE
